:020000040000FA
:1000000000750020A5030000AD030000115D000095
:10001000B1030000B3030000B503000000000000BE
:10002000000000000000000000000000B703000016
:10003000B903000000000000BB030000BD03000086
:10004000BF030000C1030000C3030000C50300009C
:10005000C7030000C9030000CB030000CD0300006C
:10006000CF030000D1030000D3030000D50300003C
:10007000D7030000D9030000DB030000DD0300000C
:10008000DF030000E1030000E3030000E5030000DC
:10009000E7030000E9030000EB030000ED030000AC
:1000A000EF030000F1030000F3030000F50300007C
:1000B000F7030000F9030000FB030000FD0300004C
:1000C000FF03000001040000030400000504000019
:1000D00007040000090400000B0400000D040000E8
:1000E0000F040000110400000000000013040000D1
:1000F0001504000017040000190400001B04000090
:100100001D0400001F04000021040000230400005F
:10011000000000000000000025040000270400008B
:10012000290400002B0400002D0400002F0400000F
:1001300031040000330400003504000037040000DF
:1001400000000000000000000000000000000000AF
:10015000390400003B0400003D0400003F0400009F
:10016000000000000000000000000000000000008F
:10017000000000000000000000000000000000007F
:10018000000000000000000000000000000000006F
:10019000000000000000000000000000000000005F
:1001A000000000000000000000000000000000004F
:1001B000410400004304000045040000470400001F
:1001C000490400004B0400004D0400004F040000EF
:1001D00051040000530400005504000057040000BF
:1001E000590400005B0400005D04000000000000F2
:1001F000000000005F0400006104000063040000D0
:10020000650400006704000000000000000000001A
:10021000690400006B0400006D0400006F0400001E
:1002200071040000730400007504000077040000EE
:10023000790400007B0400007D0400007F040000BE
:10024000810400008304000085040000870400008E
:10025000890400008B0400008D0400008F0400005E
:1002600091040000930400009504000000F002F8DF
:1002700000F070F80AA090E8000C82448344AAF1D0
:100280000107DA4501D100F065F8AFF2090EBAE8CE
:100290000F0013F0010F18BFFB1A43F001031847BA
:1002A00028B7020048B702000A444FF0000C10F8CB
:1002B000013B13F0070408BF10F8014B1D1108BFE4
:1002C00010F8015B641E05D010F8016B641E01F884
:1002D000016BF9D113F0080F1EBF10F8014BAD1CD4
:1002E0000C1B09D16D1E58BF01F801CBFAD505E0F2
:1002F00014F8016B01F8016B6D1EF9D59142D6D34C
:10030000704700000023002400250026103A28BF73
:1003100078C1FBD8520728BF30C148BF0B60704777
:10032000662927F03582642900F03C82002070475E
:100330001FB527F00DF99DE8030000F043FC00F025
:10034000A1FE04000020002125F058FEE0601FBD42
:1003500010B510BD00F0EAFF1146FFF7E9FF1DF0F0
:10036000EDF801F09BF903B4FFF7F2FF03BC16F0C0
:1003700067FB00000138FDD170470000EFF31080EB
:1003800072B67047EFF310807047EFF3108062B6DB
:10039000704730BF704780F311887047EFF31180CA
:1003A000704700003F4880473F480047FEE7FEE7B0
:1003B000FEE7FEE7FEE7FEE7FEE7FEE7FEE7FEE715
:1003C000FEE7FEE7FEE7FEE7FEE7FEE7FEE7FEE705
:1003D000FEE7FEE7FEE7FEE7FEE7FEE7FEE7FEE7F5
:1003E000FEE7FEE7FEE7FEE7FEE7FEE7FEE7FEE7E5
:1003F000FEE7FEE7FEE7FEE7FEE7FEE7FEE7FEE7D5
:10040000FEE7FEE7FEE7FEE7FEE7FEE7FEE7FEE7C4
:10041000FEE7FEE7FEE7FEE7FEE7FEE7FEE7FEE7B4
:10042000FEE7FEE7FEE7FEE7FEE7FEE7FEE7FEE7A4
:10043000FEE7FEE7FEE7FEE7FEE7FEE7FEE7FEE794
:10044000FEE7FEE7FEE7FEE7FEE7FEE7FEE7FEE784
:10045000FEE7FEE7FEE7FEE7FEE7FEE7FEE7FEE774
:10046000FEE7FEE7FEE7FEE7FEE7FEE7FEE7FEE764
:10047000FEE7FEE7FEE7FEE7FEE7FEE7FEE7FEE754
:10048000FEE7FEE7FEE7FEE7FEE7FEE7FEE7FEE744
:10049000FEE7FEE7FEE7000004480549054A064B73
:1004A000704700001D6101006D020000006800201F
:1004B00000750020006B0020006B0020B5EEC00A24
:1004C000F1EE10FA07D2DFED1E0AB4EEE00AF1EE0B
:1004D00010FAA8BF7047DFED1B0AB5EEC00A60EE48
:1004E000200ABDEEE01A11EE100AF1EE10FA38BF44
:1004F000401E00EE100A1549F7EE001AB8EEC00AC9
:1005000030EEC00ADFED100A60EE200ABCEEE00A11
:1005100010EE100AC0F3080000EE100A01EB800094
:10052000B8EE400A90ED011A70EEC00A90ED000A94
:1005300071EEE01A21EE800A00EE810A7047000099
:10054000CD024CB483F9223E000000443C810200FD
:10055000DFED460A60EE200AF5EEC00AF1EE10FA71
:1005600038BFF1EE600ABDEEE01ADFF808C1F7EE21
:10057000004AB0EE085AB8EEC11AB5EEC00A70EEE5
:10058000C10A9FED3B1A20EE811AFCEEC10A10EE63
:10059000902AC2F3080200EE902A02F180030CEBCD
:1005A0008202F8EE600AD2ED001AC3F308030CEBE6
:1005B0008303F1EE612A71EE600AD2ED011A93ED28
:1005C000001A93ED012AF1EE613A74EEE01A32EE70
:1005D000413A61EE811A40EE821A32EEA32ADFED33
:1005E000261A22EE214AB0EE002A42EE223A02EE0C
:1005F000434A23EE053A03EEE13A00EE843A34EE44
:10060000E04A20EE833A02EEA13A00EE831A81ED31
:10061000001A92ED001AD2ED013AD3ED002A24EE31
:10062000014A93ED013A00EEA34A32EE834A73EE9B
:10063000C13A02EE223A24EE214A02EE634A63EE08
:10064000853A43EE613A40EE843A20EEA32A02EE68
:10065000A12A00EE821AF1EE10FA80ED001A3CBFDA
:10066000B1EE410A80ED000A70470000610B363B95
:10067000000000443C810200DB0F493C704770B52C
:10068000064600F083FA056806F10B0020F0070427
:10069000B4429CBF002070BD2B466A68BAB1106896
:1006A000A04210D304F1080188423CBF5068586052
:1006B00007D35168101941601168091B0160586027
:1006C0001460101D70BD13465268002AE7D1214600
:1006D000284600F063FA0028DED170BD70B50446EC
:1006E000051F00F053FA0068002C14BF446870BD69
:1006F000002C18BFAC423CBF20466468F8D30168A8
:100700000A18AA4218BF456003D12A680546114459
:10071000016028684119A1421CBF6C6070BD61680E
:10072000696021680844286070BD00000FB41CB5E2
:10073000074B06AA7B4469460090059800F085FCAB
:100740000020694600F094FC1CBC5DF814FB00001E
:100750003909000070B5044685690068C10601D5F5
:10076000302600E02026C00707D070BDD4E9012163
:1007700030469047206A401C20626D1EF6D570BD41
:1007800070B5044685690078C00707D170BDD4E90B
:10079000012120209047206A401C20626D1EF6D562
:1007A00070BD00002DE9F04106460024106875294F
:1007B000314616A510D0AFF30080002802DA40427F
:1007C00013A507E031688A0701D512A502E04907A1
:1007D00004D511A5012401E0AFF3008000210A2215
:1007E00006F1240709E0B0FBF2FCB0FBF2F302FBD8
:1007F0001C00303078541846491C0028F3D1234699
:100800002A463046BDE8F04100F01DBA0000000065
:100810002D0000002B000000200000002DE9F04713
:100820004FF0000A89460446C0F820A02046E1683F
:100830008847002876D0252806D0D4E901219047A2
:10084000206A401C2062F1E7E168204600258847C5
:10085000C4F81CA006460027C4F818A02A2E09D008
:10086000304624F0A1FF38B304EB8708303EC8F8C7
:10087000186019E059F8041B204604EB87029161C7
:10088000E1688847012F064618D1E069002820DA80
:1008900025F020051DE0D8F8180000EB800006EBDD
:1008A00040003038C8F818002046E16888470646FE
:1008B00024F07AFF0028EED1012F0AD02E2E08D185
:1008C0002046E16888477F1C0646022F45F0200538
:1008D000C4DBA069002803DA404245F00105A061AD
:1008E000E80701D025F01005B6B1A6F1410019289E
:1008F00002D8203645F400654A4631462046256038
:100900004D46FFF70DFD58B1012806D0ED1D25F02D
:10091000070000F1080989E704E005F1040985E70B
:1009200030468AE7206ABDE8F08740EA010310B547
:100930009B070FD1042A0DD310C808C9121F9C426F
:10094000F8D020BA19BA884201D9012010BD4FF061
:10095000FF3010BD1AB1D30703D0521C07E00020AE
:1009600010BD10F8013B11F8014B1B1B07D110F80B
:10097000013B11F8014B1B1B01D1921EF1D118460E
:1009800010BD032A40F2308010F0030C00F01580F7
:1009900011F8013BBCF1020F624498BF11F801CB82
:1009A00000F8013B38BF11F8013BA2F1040298BFE7
:1009B00000F801CB38BF00F8013B11F0030300F051
:1009C0002580083AC0F0088051F8043B083A51F8F5
:1009D00004CBA0E80810F5E7121D5CBF51F8043BFA
:1009E00040F8043BAFF30080D20724BF11F8013B6D
:1009F00011F801CB48BF11F8012B24BF00F8013BCF
:100A000000F801CB48BF00F8012B704710B5203A21
:100A1000C0F00B80B1E81850A0E81850B1E81850A9
:100A2000A0E81850203ABFF4F5AF5FEA027C24BF7B
:100A3000B1E81850A0E8185044BF18C918C0BDE864
:100A400010405FEA827C24BF51F8043B40F8043B2D
:100A500008BF7047D20728BF31F8023B48BF11F8E2
:100A6000012B28BF20F8023B48BF00F8012B70473C
:100A70004FF000020429C0F0128010F0030C00F0C7
:100A80001B80CCF1040CBCF1020F18BF00F8012B45
:100A9000A8BF20F8022BA1EB0C0100F00DB85FEA13
:100AA000C17C24BF00F8012B00F8012B48BF00F8DF
:100AB000012B70474FF0000200B51346944696464E
:100AC000203922BFA0E80C50A0E80C50B1F1200161
:100AD000BFF4F7AF090728BFA0E80C5048BF0CC00F
:100AE0005DF804EB890028BF40F8042B08BF70476D
:100AF00048BF20F8022B11F0804F18BF00F8012BDF
:100B0000704700000000000030B44FF0013C50F886
:100B1000042B51F8043BCCFA52F4D51A20D1FCB97D
:100B200050F8042B51F8043BCCFA52F4D51A17D1E3
:100B3000B4B950F8042B51F8043BCCFA52F4D51A4E
:100B40000ED16CB950F8042B51F8043BCCFA52F496
:100B5000D51A05D1002CDAD030BC4FF00000704718
:100B600029BAB1FA81F111F01801D1F120008440C5
:100B7000F2D1CA40CB4012F0FF0213F0FF0330BCA9
:100B8000D01A7047704770477047704700487047E9
:100B9000D8090020704770477047704738B5044641
:100BA0000A4600206946AFF30080002808BF38BD20
:100BB00002460099204600F06DFA012038BD012060
:100BC00000F0ADBBF8B5AFF30080054600200C4641
:100BD000102000BF0646A819A0420DD9324669462A
:100BE0000020AFF30080070008BF00F098FB0098DA
:100BF000A04218BF0546C419FFF7C8FF05600746A5
:100C0000F01D20F007004619284600F00AF8B4420B
:100C100008BFF8BDA21B31463868BDE8F84000F0B7
:100C200039BA00210160C0E90110704710207047F7
:100C300010B500F02BFA006810BD10B5044600F0A6
:100C400025FA046010BD2DE9F0470D4699469246FD
:100C5000044600F124080168880604D5E06921F003
:100C60001001216000E00120A84201DD471B00E0E7
:100C70000027A1697A1902EB0900081AA0612078FF
:100C8000C00602D42046FFF765FD002608E0D4E93F
:100C900001211AF806009047206A401C761C206249
:100CA0004E45F4DB2078C0060AD52046FFF752FDFA
:100CB00006E0D4E9012130209047206A401C2062E0
:100CC000381EA7F10107F4DC07E0D4E9012118F888
:100CD00005009047206A401C2062281EA5F10105EE
:100CE000F3DC2046FFF74CFD2078000602D50220F9
:100CF000BDE8F0870120FBE72DE9F04F1C46834655
:100D00000E468BB0D2E90030149DC10F009120F047
:100D10000041080D01D0012200E00022801A0027C6
:100D2000DA1B61EB005191460A438846A0F2324A31
:100D30000AD00021084626F0B9FC10F4400F14D068
:100D40000099A1B1400213E0012D02D00020302112
:100D500005E0E043CDE9060705E03154401CA04220
:100D6000FBDBCDE90674089529E0002005E00002D0
:100D7000002801DA022000E00120012D08950FD0A3
:100D80000021CDE904103046CDE902A4CDE9009858
:100D900009AA06A900F0F0F90790099810B105E03A
:100DA0000121EEE71021084626F080FC012D06D136
:100DB000DDE90610641C2144884200DA0897079890
:100DC00006AC375494E80E00CBE90012CBF808309B
:100DD0000BB0BDE8F08F2DE9F04F88460446D21DD8
:100DE00022F00701ADF5477DD1E90001CDE9BE0153
:100DF00023F0E2FB0246BF98C00F01D02D2007E090
:100E00002068810701D52B2002E0202101EAC000E3
:100E1000032AC09001D0072A05DB0346414620463D
:100E200000F06AF908E12078800601D5E06900E069
:100E3000062040F2F123B8F1650F814606D0B8F1E3
:100E4000660F16D0B8F1670F6BD12FE00020B9F50F
:100E50003C7F009001DC09F10103BEAA01A9C1A8F1
:100E6000FFF74AFFDDE9C170002609F1010583465D
:100E700044E001204B4600904FF00047BEAA01A974
:100E8000C1A8FFF739FFDDE9C2B0C1995D46002670
:100E900010B909F101000D18B9EB050003D4C0F138
:100EA000FF3609F10105A5EB090028E0B9F1010FB2
:100EB00001DA4FF00109002099450090484600DC16
:100EC0000346BEAA01A9C1A8FFF716FFDDE9C1705C
:100ED0004D4600268346207800070AD4AB4500DA49
:100EE0005D4601A8012D04DD411911F8011C3029CE
:100EF00007D04F4502DA17F1040F04DA01208246C9
:100F00000FE06D1EEEE7002F02DCED1B3E4403E018
:100F1000781CA84200DD7D1CB81B00F1010A4FF0CF
:100F200000472078000703D4AA4501DB4FF0FF3AC1
:100F30000021B7F1004F0DF217388DF8171324D0A8
:100F400002202B23002F01DA7F422D230A21021ECB
:100F5000A0F1010000DC5FB197FBF1FC97FBF1F21F
:100F600001FB1C7C17460CF1300C08F801CDEEE7B4
:100F7000A8F1010003702188090501D5452100E091
:100F80006521A0F1010800F8011CC098C4A9A1EBDB
:100F90000807FF1D00B10120411901EBEA70A169AA
:100FA0003844081A401EA0612078C00602D42046AA
:100FB000FFF7D0FBC09828B1D4E901219047206AFF
:100FC000401C20622078C00622D52046FFF7C2FBD5
:100FD0001EE0002E04DBB34502DD01A8805D00E0C9
:100FE0003020D4E901219047206A401C2062761C01
:100FF000AAF101005FEA000A0AD100F043F8C068D4
:101000000168405CD4E901219047206A401C2062BD
:10101000281EA5F10105DCDC07E0D4E9012118F860
:10102000010B9047206A401C2062381EA7F101077F
:10103000F3DC2046FFF7A4FB03200DF5477DC8E64F
:1010400001694A1C02610878704700B58FB0CDE98C
:1010500001310021059105497944CDE9031011467C
:101060006846FFF7DBFB0FB000BD0000E5FFFFFFA8
:101070000A6802F8010B0A607047000000487047D8
:10108000D009002000487047F00900200048704750
:10109000D0090020034640688C46002818BF8842CB
:1010A0003CBF03464068F8D318681844884207D00C
:1010B0000CF1030020F00700001D411A521A0146EE
:1010C000081D0A60FFF70ABB1FB584B000200A9C08
:1010D00006AB04AA02A90094AFF3008018B1DDE9C1
:1010E000020108B010BD0348204000F0E5FA0020DE
:1010F0000146F6E70000207C2DE9F0411F4604463A
:1011000003260168072A01F4006004DB08B116A574
:1011100005E016A503E008B115A500E015A521F02E
:1011200010002060A069C01EA0610FB1401EA06128
:101130002046FFF70FFB4FB1D4E901213846904715
:10114000206A401C2062C01C206206E0206AFAE788
:10115000D4E9012115F8010B9047761EF8D22046FC
:10116000FFF70EFBBDE8F0814E414E006E616E0050
:10117000494E4600696E66002DE9FF4F0446ADF505
:10118000437DD1AB93E82500D099DDF854830091DD
:10119000CDE90102C0AAC1A903A800F005FA0346DF
:1011A000C198D499064641B11D446D1C012D04DA45
:1011B000C5F10101012508440B44A6464FF0FF325A
:1011C0004FF0390B002124E0401EB04201D300272C
:1011D0000CE0DDF800C387083CF817704FEA807C0C
:1011E0004FEA1C7C27FA0CF707F00F076D1E092F3A
:1011F0000EDA002A02DB303204F8012B5A460029AD
:1012000003DD491E04F8012BF9E700213A4600E00E
:10121000491C08B1002DD7DC4FF0010CB8F1020FCA
:1012200008D0B8F1010F07D0A0B1401EB04205D3DD
:1012300000270CE0002522E0022520E0C09F850861
:1012400037F8155087073F0FFD4005F00F07052FB2
:1012500002DB04E04FF000074FF0000507E003DC7D
:10126000002901DCD50701D0012500E002250FB1DE
:101270004FF0000C022D02D0BCF1000F22D04FF035
:101280000009DDF800A313E0401EB04201D300279F
:101290000BE04FEA90083AF818704FEA80784FEA6E
:1012A000187827FA08F707F00F070FB1012004E0BC
:1012B0000028E9D1B9F1000001D04FF0000C022D57
:1012C00000D10546012D02F101000AD010B13032E3
:1012D00004F8012B5846002916DD491E04F8010BBD
:1012E000F9E718B1313204F8012B06E0312004F897
:1012F000010BD4985B1C00B9491E3020002903DD86
:10130000491E04F8010BF9E7C4980360C598C0F8BA
:1013100000C00DF5477DA4EB0E00BDE8F08F10B5C1
:1013200000F0D2F9BDE8104000F0C1B97546FFF7F2
:10133000A5FEAE4605006946534620F007008546E7
:1013400018B020B5FFF7A8F8BDE820404FF0000620
:101350004FF000074FF000084FF0000BAC46ACE830
:10136000C009ACE8C009ACE8C009ACE8C00921F08C
:1013700007018D4670470000810B43F26D425143D7
:10138000490B01EB107101EB507070472DE9FF5FC5
:10139000804600252F46DDF838A02CE0019900207A
:1013A000044631F817B021E0544503D2039931F8CF
:1013B000141000E000210BFB0100B0B13E19002128
:1013C00002E028F815106D1CB542FAD938F816104D
:1013D000014489460846FFF7CFFF6FF41C7100FBFC
:1013E00001F209EB021128F81610641C5445DBD3F6
:1013F0000028D9D17F1C02988742CFD3284604B059
:10140000BDE8F09F2DE9FF4F87B003AC0123002515
:10141000159EADF8182084E80B000A9B0121DBB172
:10142000B3FA83F0C0F11F0783EA53000DF10C0BF0
:1014300080EA900080EA101080EA102080EA1040D4
:1014400000F00100784021EA00045BF824000280EB
:1014500001A840F8241072E00180169808B100211C
:10146000016001200BB0BDE8F08F0DF1040858F8C1
:10147000242000925BF82410C4F101045BF82400DE
:101480000B46FFF783FF48F824000A996D000120FE
:10149000B84008420ED0059806AB009058F82420BA
:1014A0005BF82410C4F101045BF82400FFF76EFF21
:1014B00048F82400149890B358F82400B0423ED95C
:1014C000811B1498002827DD4FF0000948464A4642
:1014D0005BF82430DFF8C0E116E033F812C01CEBF3
:1014E000000010D041F6372C824600FB0CF040F291
:1014F000712C0EEBC000400F00FB0CF8BAEB081F7C
:1015000001D04FF00109521C8A42E6D333F811C0D2
:101510004844604423F811005B46002009E00EE0D7
:1015200053F8242000EB010C32F81CC022F810C044
:10153000401CB042F4D301A80D4440F824607F1E43
:1015400093D5169800B1056001A850F8240089E7EA
:101550002DE9F0438946844600210A460B461DE0EA
:101560004B4502D23CF8134021444FF00A080025B5
:101570002C46B1FBF8F6970708FB16163F0FB1FB98
:10158000F8F106FA07F72F43521CBDB206B1104618
:10159000641C042CEDD32CF813505B1C4B45DFD39B
:1015A0000029DDD1BDE8F0832DE9FF4F824689B0E7
:1015B0000526DDF860B035E0042E0DDA22464FF442
:1015C0000050ADF804000120009001AB03A906A86B
:1015D000FFF7DCFE074600E0002706EB860000EB85
:1015E000C602DDE9160100F097F800240DF1180895
:1015F0000DF10C09C0F30C0510E0BC4202D238F822
:10160000140005442846FFF7B7FE6FF41C714143F0
:1016100005EB0111054629F81410641CBC42ECD3FB
:10162000002DEAD1301EA6F10106C5DC0025BBF174
:10163000000128460AF5BD7609DD0B465146022217
:101640000090019002903046FFF7DCFE0FE00BDACD
:1016500051460522CBF100030090019002903046E4
:10166000FFF7D0FE5D4602E00120AAF87A0133467A
:10167000224603A900905046FFF788FE0B9A0146C8
:101680005046C2F800A0FFF763FF0A996D1E08607C
:1016900028440DB0E7E6000000F0FFFF10B5044657
:1016A000AFF300802046BDE81040FEF75CBE002886
:1016B00001D015F0C5B9704710B500F059F8BDE874
:1016C0001040FFF7F4BF000010B5012805D000213D
:1016D00003A000F034F8012010BD09A1F8E70000D4
:1016E00053494752544D454D3A204F7574206F660B
:1016F0002068656170206D656D6F72790000000073
:101700003A2048656170206D656D6F727920636F56
:101710007272757074656400B2F120030AD5C2F16B
:10172000200320FA02F001FA03F340EA030021FA51
:1017300002F1704721FA03F04FF00001704770B5D5
:1017400005460C460A2000E06D1C15F07BF935B10A
:1017500028780028F8D102E0641C15F073F914B160
:1017600020780028F8D1BDE870400A2015F06AB949
:1017700010B5022803D0410103D50DA112E00020CD
:1017800010BD010101D50FA10CE0C10001D511A1CF
:1017900008E0810001D512A104E0400001D513A1A9
:1017A00000E0002115A0FFF7CAFF012010BD0000D6
:1017B000496E76616C6964204F7065726174696FFF
:1017C0006E000000446976696465204279205A659C
:1017D000726F00004F766572666C6F7700000000D4
:1017E000556E646572666C6F77000000496E6578AF
:1017F00061637420526573756C74000053494746E9
:1018000050453A2041726974686D6574696320655A
:101810007863657074696F6E3A200000B0B52DED85
:10182000068B48F2AC04C4F20304206810F4807FF5
:101830003DD1206810F4807F1DD100BF54F8040C06
:10184000216811F4807F11D154F8040C216811F43F
:10185000807F0BD154F8040C216811F4807F05D1EE
:1018600054F8040C216811F4807FE7D000EE100AD0
:10187000B8EE408A01E09FED128A41F610559FEDC7
:10188000119A9FED11AAC2F2000501F0C7FF95ED74
:10189000001A88EE093A9FED0D2A23EE0A3AB0EEBF
:1018A000414A13EE004A04EE021A85ED001AA4F133
:1018B000AC000321BDEC068BBDE8B0401FF069BB56
:1018C0000000000000F07F45333353400AD7A33CAB
:1018D00040F670410020C2F200010A78012A18BFC8
:1018E00070470870487801281CBF0120704700200D
:1018F0004870012070470000B0B540F67045C2F254
:101900000005287878B918F021FB01280BD140F2A6
:10191000940001240A21C2F200002C70017000F032
:1019200019F82046B0BD00242046B0BD40F6B031C5
:101930000020C2F200014A78012A18BF704780B522
:101940004870FFF7C5FF13F0A1F80120BDE8804003
:10195000704700002DE9F04381B02DED068B40F675
:10196000B035C2F20005687830B100242046BDECE5
:10197000068B01B0BDE8F08318F0F6FA00240128C8
:1019800040F0F2800120687018F0D2FA13F00EFADD
:101990000020012185ED060AAC7002F009F8002054
:1019A0000221B0EE408A02F003F800200321B0EEDD
:1019B000409A01F0FDFF00200421B0EE40AA01F0A2
:1019C000F7FF43F2C8454DF2A54601200121C2F2BE
:1019D0000005C5F2683685ED058A85ED069A85ED28
:1019E00007AA85ED080AC5E90966C5E90B66C5E9D8
:1019F0000D66C5E90144C5E9034401F0D9FF0120A2
:101A00000221B0EE408A01F0D3FF01200321B0EEA5
:101A1000409A01F0CDFF01200421B0EE40AA01F070
:101A2000C7FF0220012185ED148A85ED159A85ED09
:101A300016AA85ED170AC5E91866C5E91A66C5E94B
:101A40001C66C5E91044C5E9124401F0B1FF02204B
:101A50000221B0EE408A01F0ABFF02200321B0EE7C
:101A6000409A01F0A5FF02200421B0EE40AA01F047
:101A70009FFF85ED238A85ED249A85ED25AA85EDC6
:101A8000260AC5E92766C5E92966C5E92B66C5E9C1
:101A90001F44C5E9214401F06BFF41F6280543F2DC
:101AA0003338B7EE009A0020B0EE408AC2F200054B
:101AB000C3F6337889EE00AA01F092FF40F20009E4
:101AC000002644F20007C4F22019C4F2FA36C4F228
:101AD0009C57C5E90089C5E90267C5E906442C623F
:101AE0002C6485ED048A85ED05AA85ED110AC5E90A
:101AF0000A44C5E90C4401F03BFF0120B0EE408AE6
:101B000089EE009A01F06CFF0220C5E91389C5E94E
:101B10001567C5E91944EC66C5F88C4085ED178A50
:101B200085ED189A85ED240AC5E91D44C5E91F44D1
:101B300001F056FF00204DF20A71C5F8B840C5F813
:101B4000D840C5E92689C4F24830C3F6A331C5E9B7
:101B50002800C5E92A10C5E92C4485ED370AC5E9F6
:101B60003044C5E9324401242046BDEC068B01B067
:101B7000BDE8F08340F6B030C2F2000090ED080AF4
:101B80007047000040F6B030C2F2000090ED070A46
:101B90007047000080B52DED068B20EEA0AAB0EEB8
:101BA000608AB0EE409A00EE00AAB5EEC0AAF1EE4F
:101BB00010FA19DBB0EE4A0A23F048FCB4EEC00A72
:101BC000F1EE10FA03D7B0EE4A0A23F03FFC9FED86
:101BD0000E1AB4EEC10AF1EE10FAC2BF81EE000A8D
:101BE00020EE088A20EE099A40F6B030C2F20000DA
:101BF0004178012911BF002080ED079A80ED088A05
:101C00000120BDEC068B80BDCDCC4C3F40F6B03101
:101C1000C2F200014878012811BF0020012088701D
:101C200081ED090A7047000040F6B030C2F20000B2
:101C30004178012912BF002080ED050A012070477C
:101C400040F6B030C2F20000417801291CBF0020EC
:101C50007047817801291CBF0120704702218170E3
:101C6000012070472DE9F04F81B02DED108B84B02D
:101C7000002004F041F8417881B1817871B190F889
:101C8000221008290AD8012202FA01F111F4B47FC6
:101C900004D090F82300002800F09980012004F07F
:101CA0002BF8417881B1817871B190F82210082920
:101CB0000AD8012202FA01F111F4B47F04D090F89D
:101CC0002300002800F08580022004F015F84178F8
:101CD00079B1817869B190F82210082909D80122D8
:101CE00002FA01F111F4B47F03D090F82300002828
:101CF00071D0032004F000F8417879B1817869B19E
:101D000090F82210082909D8012202FA01F111F4F1
:101D1000B47F03D090F8230000285ED0042003F0A5
:101D2000EBFF417879B1817869B190F822100829E8
:101D300009D8012202FA01F111F4B47F03D090F81E
:101D4000230000284BD0052003F0D6FF417871B165
:101D5000817861B190F82210082908D8012202FA8E
:101D600001F111F4B47F02D090F82300C8B306202B
:101D700003F0C2FF417871B1817861B190F822100F
:101D8000082908D8012202FA01F111F4B47F02D027
:101D900090F8230038B3072003F0AEFF417871B10B
:101DA000817861B190F82210082908D8012202FA3E
:101DB00001F111F4B47F02D090F82300D0B140F6C5
:101DC000A0500021C2F20000416100F028BC0020B8
:101DD00011E001200FE002200DE003200BE00420C1
:101DE00009E0052007E0062005E000BF0000000034
:101DF0006F12833A0720C0B203F07EFF40F6807175
:101E0000C768C2F20001D1E900325740024652F8D9
:101E1000086F73403B4303D00378002B01F06C81C3
:101E200040F6206040F6A0520021C2F20002C2F249
:101E3000000092ED040AC0E90611506940F6A05472
:101E40000130C2F20004606118F0D8FAB0EE408AA6
:101E500094ED040AB0EE609AB0EE41AAB0EE61BA19
:101E600018F0ECF940F6206545F6D464B0EE414A2E
:101E7000B0EE402A1FED23CAB0EE603A0420C2F251
:101E80000004C2F2000594ED016A95ED061A94ED86
:101E9000050A94ED027AD4ED030AD4ED041A31EE6A
:101EA000465A94ED091A207065EE002AB0EE4C5A9D
:101EB000F4EEC12AF1EE10FA0EDC94ED0A1AB0EE3F
:101EC0004C5AB1EE411AF4EEC12AF1EE10FAA4BF59
:101ED000B0EE405AB0EE621AD4ED063AD4ED0B4A99
:101EE00067EE457A31EE47DA60EEC56A61EE852A23
:101EF00020EE850A67EE055A37EEE05A36EEE11A13
:101F0000F0EE4C6A63EE8D7AF4EEE47AF1EE10FABC
:101F10000EDCD4ED0C4AF0EE4C6AF1EE644AF4EEBD
:101F2000E47AF1EE10FAA4BFF0EE636AF0EE674ACD
:101F300074EEE53AD4ED074A15EE260AD4ED0D5AB3
:101F400051EE262AF0EE4C6A33EEE05A70EE613A1A
:101F500024EE851AB4EEE51AF1EE10FA0EDC94EDDB
:101F60000E5AF0EE4C6AF1EE455AB4EEE51AF1EE77
:101F700010FAA4BFF0EE415AF0EE646A70EE254A02
:101F8000D4ED085A43EEA62A94ED100AD5ED076A5F
:101F90001FED69DA94ED111A94ED125A042074EED3
:101FA000E13AD4ED184A45EEA32AD4ED143A76EE80
:101FB000C05A07EE0D6A00EE8D7A41EE8D0A42EEB0
:101FC0008D1AD4ED132A84F83C0084ED016A84ED67
:101FD000027AC4ED030AF0EE4C0A65EEA35AC4ED92
:101FE000041AF4EEE45AF1EE10FA0EDC94ED196ADC
:101FF000F0EE4C0AF1EE464AF4EEE45AF1EE10FA35
:10200000A4BFF0EE630AF0EE654AD4ED156A74EEF3
:10201000C17AD4ED1A3A65EE601A61EE605A22EE8A
:10202000A06A25EE207A61EE204A71EEE20A75EE92
:10203000C51AF0EE4C5A66EEA77AF4EEE37AF1EEAA
:1020400010FA0EDCD4ED1B3AF0EE4C5AF1EE633A86
:10205000F4EEE37AF1EE10FAA4BFF0EE665AF0EE79
:10206000673A73EEE46AD4ED163A11EEA57AD4ED30
:102070001C4A10EEA56AF0EE4C5A76EEC51A77EEC1
:10208000620A63EEA11AF4EEE41AF1EE10FA0EDC25
:10209000D4ED1D4AF0EE4C5AF1EE644AF4EEE41A27
:1020A000F1EE10FAA4BFF0EE614AF0EE635A37EE9B
:1020B000247AD4ED171A00EEA56A01EE0D0A05EE9A
:1020C0000D1A02EE8D5AF0EE490A37EE627A84ED6F
:1020D000100A84ED111A84ED125AB0EE480AB0EEDF
:1020E0004A1A01EE876AF0EE4B1A46EE0D2AC4ED4D
:1020F000132AF0EE432AB0EE443A12F079FF44F28C
:10210000A806B0EE401A0420C2F2000696ED014A7D
:1021100096ED052A96ED025A96ED036A96ED047A3D
:1021200030EE443A96ED090A307063EE021AB0EED2
:102130004C3AF4EEC01AF1EE10FA0EDC96ED0A0AF3
:10214000B0EE4C3AB1EE400AF4EEC01AF1EE10FADD
:10215000A4BFB0EE423AB0EE610AD6ED062A70EEA8
:10216000456AD6ED0B3A26EE432A65EE435A67EEF2
:10217000031A26EE030A65EE034A35EEC63A32EE3E
:10218000472AF0EE4C5A62EEA66AF4EEE36AF1EEEC
:1021900010FA0EDCD6ED0C3AF0EE4C5AF1EE633A42
:1021A000F4EEE36AF1EE10FAA4BFF0EE625AF0EE3C
:1021B000663A73EEE42AD6ED073A13EE250AD6ED19
:1021C0000D4A52EE251AF0EE4C5A32EEC63A70EE37
:1021D000472A23EE832AB4EEE42AF1EE10FA0EDC4D
:1021E00096ED0E3AF0EE4C5AF1EE434AB4EEE42A84
:1021F000F1EE10FAA4BFF0EE424AF0EE635A70EE30
:10220000243AD6ED084A42EEA51A96ED100A05EEDC
:102210000D4A06EE0D5A96ED112A96ED123A04205B
:1022200007EE0D6A73EEC72AD6ED183A44EEA21AED
:10223000D6ED142A70EEC04A01EE8D7AD6ED131A4F
:1022400086F83C0086ED014A86ED025A86ED036A67
:10225000B0EE4C6A64EEA24A86ED047AF4EEE34AEC
:10226000F1EE10FA0EDC96ED194AB0EE4C6AF1EE82
:10227000443AF4EEE34AF1EE10FAA4BFB0EE626A1B
:10228000F0EE643AD6ED154A73EEC26AD6ED1A2A1C
:1022900023EE467A62EE465A21EE864A23EE065A2D
:1022A00062EE063A37EE616A35EEC37AF0EE4C5ACA
:1022B00064EEA66AF4EEE26AF1EE10FA0EDCD6EDF8
:1022C0001B2AF0EE4C5AF1EE622AF4EEE26AF1EECD
:1022D00010FAA4BFF0EE645AF0EE662A72EEE34AFA
:1022E000D6ED162A17EE255AD6ED1C3A16EE254ADB
:1022F00034EEC37A35EE616AF0EE4C4A22EE877A0C
:10230000B4EEE37AF1EE10FA0EDCD6ED1D3AF0EE03
:102310004C4AF1EE633AB4EEE37AF1EE10FAA4BF60
:10232000F0EE473AF0EE624A35EE235A96ED177A10
:1023300006EE244A02EE0D0A03EE0D2A01EE8D3A56
:1023400086ED100A35EE615AB0EE600AF0EE410AF1
:1023500086ED112A86ED123A07EE054A44EE0D1A73
:10236000C6ED131A22F07CFAD5ED068AB0EE409A3B
:1023700022F0C0FBB0EE40AAD5ED079AB0EE490AB4
:1023800022F09CFFB0EE40BA95ED06EAB0EE490AA5
:1023900022F094FFB0EE408A95ED07FA41F2403505
:1023A000B0EE490A29EE8BBAC2F2000522F0A2FB78
:1023B00095ED014A08EE8ABA95ED052A95ED091AC0
:1023C00095ED025A95ED036A95ED047A0420287084
:1023D0003BEE443A63EE020AB0EE4C3AF4EEC10A28
:1023E000F1EE10FA0EDC95ED0A1AB0EE4C3AB1EEB1
:1023F000411AF4EEC10AF1EE10FAA4BFB0EE423A6F
:10240000B0EE601AD5ED063A71EE455AD5ED0B1ACD
:1024100026EE432A65EE434A6FEE000A27EE030AD2
:1024200026EE031A65EE032A34EEC63A32EE472A48
:10243000F0EE4C4A63EEA55AF4EEE15AF1EE10FAD2
:102440000EDCD5ED0C1AF0EE4C4AF1EE611AF4EE0A
:10245000E15AF1EE10FAA4BFF0EE634AF0EE651A0D
:1024600071EEE21AD5ED072A13EE241AD5ED0D3AD6
:1024700012EE240A4EEE480AF0EE4C4A31EEC63A0D
:1024800071EE471A22EE832AB4EEE32AF1EE10FA37
:102490000EDC95ED0E3AF0EE4C4AF1EE433AB4EE16
:1024A000E32AF1EE10FAA4BFF0EE423AF0EE624AEF
:1024B00071EE232AD5ED083A95ED101A01EEA40A23
:1024C00005EE0D4A06EE0D5A07EE0D6A95ED112A3E
:1024D00095ED123A042072EEC71AD5ED142A03EED8
:1024E000A10AD5ED131A70EEC10A00EE0D7A95ED32
:1024F000180A60EEA20A85F83C0085ED014A85EDD8
:10250000025AB0EE4C5A85ED036A85ED047AF4EE7A
:10251000C00AF1EE10FA0EDC95ED190AB0EE4C5A35
:10252000B1EE400AF4EEC00AF1EE10FAA4BFB0EE2C
:10253000625AB0EE600A95ED157A70EE424AD5ED1A
:102540001A0A23EE456A62EE453A21EE850A23EE29
:10255000054A62EE052A36EE615A33EEC36AF0EEA2
:102560004C3A67EE244AF4EEE04AF1EE10FA0EDC43
:10257000D5ED1B0AF0EE4C3AF1EE600AF4EEE04ABB
:10258000F1EE10FAA4BFF0EE473AF0EE640A70EEF6
:10259000E22AD5ED160A16EE234A95ED1C7A15EEC1
:1025A000230A32EEC36A34EE615A20EE866AB4EE34
:1025B000C76AF1EE10FA0CDC95ED1D7AB1EE477AA0
:1025C000B4EEC76AF1EE10FAA4BFB0EE467AB0EEF0
:1025D00060CA34EE074A95ED176A05EE0C0A02EE62
:1025E0000D1A03EE0D2A01EE8D3AD4ED010A34EEF8
:1025F000614A85ED101A85ED112A85ED123A06EE35
:10260000040A40EE0D1A94ED100AC5ED131A22F0DB
:1026100027F9D6ED010A96ED100A22F021F90020E3
:1026200041F6AC1A40F6A055FEEE009AF6EE008A8E
:10263000F7EE00AAB2EE048A4FF000084FF000094E
:102640008DF80E00ADF80C0041F2D000C2F2000A85
:10265000C2F20005C2F2000000F1500441F2A010E5
:10266000C2F20000061D49F24050C0F2020000789C
:10267000009000BF5FFA89F003F030FB83460078DA
:10268000002800F0E58144F6704044F67841029459
:1026900044F6D467C2F20000C2F20001C2F20007A1
:1026A000007800284FF6FF7018BF01200988A1EBC1
:1026B0000002134618BF96338842314698BF13462E
:1026C000D5E91202D5E9146C3C7800EB830044F69E
:1026D000DC63002C4FF6FF74C2F200031B8818BFA6
:1026E0000124A3EB04073D4618BF96359C4245F2F2
:1026F000401398BF3D4645F23817C2F20003C2F2BC
:1027000000071B8802EB85023F78002F4FF6FF770A
:1027100018BF0127A3EB0704254618BF96359F4233
:1027200045F29C37C2F2000798BF25463F7806EB7A
:10273000850345F2A436C2F20006002F4FF6FF775C
:1027400018BF01273688A6EB0704254618BF963523
:10275000B74211ED010A9BED093A91ED001A9BED8C
:102760000A4A019191ED012A9BED0B5A98BF25462B
:1027700090ED00FA009893ED00DA92ED00EA0CEB90
:10278000850135EE429A34EE41AA33EE40BA91ED1E
:1027900000CA484521D001F085F8B0EE603AB0EEAD
:1027A000615AB0EE414AB0EE402AB0EE4F0AF0EE68
:1027B0004E0AB0EE4D1AF0EE4C1AF0EE432AB0EE8F
:1027C000443AF0EE453A12F085FAB0EE40FAB0EE37
:1027D00060EAB0EE41DAB0EE61CA029CB0EE4F0A98
:1027E000F0EE4E0AB0EE4D1AF0EE4C1AB0EE4B2A57
:1027F000F0EE4A2AB0EE493A12F0FAFBD4E90001B1
:10280000B0EE40BAB0EE60AAB0EE419A13F0D6FC3A
:10281000002800F02981D4E90023DBE9020140F619
:10282000A055019EC2F200054B4042401A4300F001
:102830004B829AED021A9AED010A9AED063A9AED48
:10284000074A9AED032A9AED085A9AED046A9AED1E
:10285000097AC4E9000103A8012100F80910042045
:1028600041F660217BEE400AF0EE414A7AEE431ACF
:10287000F0EE446A62EE293A65EE295A61EE292AA1
:10288000C2F2000150EEA84A51EEA86A64EE290A8D
:1028900072EEC21A44EEA82A73EEC67A70EEC54AEA
:1028A00046EEA80A41EEA83A35EEC7AA67EEA81A86
:1028B00044EEA85A46EE681A6AEE284A72EEC22A18
:1028C00070EEC50A73EEC66A42EEA83A47EE684A51
:1028D00046EEA81A75EEC72A40EEA85ADBED040AA8
:1028E00073EEC63A8AF800008AF8140042EEA84A4D
:1028F00043EEA81A00EE810A00EE821A00EE862A44
:1029000000EE843A00EE854A00EE875A00EEA16A96
:102910008AED010A75EEC72A8AED021A8AED032AAA
:102920008AED046A8AED063A8AED074A8AED085A6A
:1029300042EEA84A00EEA47A8AED097A8AF82800C5
:1029400011F808009AED0C1A9AED0B0A9AED0D2A6F
:102950009AED0E3A002839EE404AB0EE417A22EE66
:10296000296A21EE295A00EE810A00EE821A14EE3D
:10297000287A8AED0B0A35EE424A76EE431A8AED42
:102980000C1A07EE285A04EE286A21EEA84A35EE02
:10299000425A36EE437A00EE832A03EE684A05EE89
:1029A000286A8AED0D2A07EE284A36EE435A05EECC
:1029B000284A00EE843A8AED0E3A9BED090A00F0AF
:1029C000B28001EB080090ED071A90ED083A90ED07
:1029D000014A90ED025AD0ED090A90ED036AD0ED5C
:1029E0000A1A90ED047A31EE012A30EE022A33EE13
:1029F000022A90ED0B3A24EE022A90ED0C4A00EEEA
:102A0000C52A01EEC62A90ED0D6A33EE035AD0EDC9
:102A1000061A32EE055A34EE054A90ED055A27EEB5
:102A2000044A90ED0E7A80ED070A80ED081A80EDD9
:102A3000092AC0ED0A0A80ED0B2A80ED0C3A06EE59
:102A4000454A07EE614A80ED0D4A80ED0E6A7CE052
:102A5000204613F0B7FB37E1000000000BD7233C02
:102A60000AD7A33CCDCC4C3D002041F66024F0EECB
:102A7000480ACAE90200CAF810008AED01BACAE998
:102A80000700CAF824008AED06AACAE90C00CAF8B1
:102A900038008AED0B9AC2F20004DBF8240004EB44
:102AA0000806C6E90700C6E90900C6E90B00C6E941
:102AB0000D00DBF82800C6E91600C6E91800C6E9D3
:102AC0001A00C6E91C00DBF82C00C6E92500C6E99F
:102AD0002700C6E92900C6E92B0030469BED040A11
:102AE0008AEE800A02F0A0FE14F80800371D86F86E
:102AF0003C008ECFD6E9055486F8780006F14000F8
:102B00008EC006F17C00C6E914548EC0C6E9235479
:102B100040F6A055029CDBE90201019EC2F20005CD
:102B2000C4E90001D0E001EB080080ED070A80ED68
:102B3000080A80ED090A80ED0A0A80ED0B0A80ED93
:102B40000C0A80ED0D0A80ED0E0A01EB08009BEDEA
:102B50000A0A90F83C10002900F08F8090ED161AB8
:102B600090ED173A90ED104A90ED115AD0ED180AF9
:102B700090ED126AD0ED191A90ED137A31EE012A18
:102B800030EE022A33EE022A90ED1A3A24EE022A9F
:102B900090ED1B4A00EEC52A01EEC62A90ED1C6A94
:102BA00033EE035AD0ED151A32EE055A34EE054ACB
:102BB00090ED145A27EE044A90ED1D7A80ED160A26
:102BC00080ED171A80ED182AC0ED190A80ED1A2A37
:102BD00080ED1B3A06EE454A07EE614A80ED1C4A3D
:102BE00080ED1D6A90F878109BED0B0A00295AD0F1
:102BF00090ED251A90ED263A90ED1F4A90ED205A5F
:102C0000D0ED270A90ED216AD0ED281A90ED227AB6
:102C100031EE012A30EE022A33EE022A90ED293AF3
:102C200024EE022A90ED2A4A00EEC52A01EEC62AB9
:102C300090ED2B6A33EE035AD0ED241A32EE055A8A
:102C400034EE054A90ED235A27EE044A90ED2C7A93
:102C500080ED250A80ED261A80ED272AC0ED280A8E
:102C600080ED292A80ED2A3A06EE454A07EE614AB0
:102C700080ED2B4A80ED2C6A26E080ED160A80ED6F
:102C8000170A80ED180A80ED190A80ED1A0A80ED06
:102C90001B0A80ED1C0A80ED1D0A90F878109BED50
:102CA0000B0A0029A4D180ED250A80ED260A80EDCB
:102CB000270A80ED280A80ED290A80ED2A0A80ED96
:102CC0002B0A80ED2C0A00BF08F1B4080C3608343A
:102CD0000AF13C0A09F10109B8F5077F7FF4CAAC93
:102CE000E888B0F5FA6F36D8009841F6AC1140F29A
:102CF000A004C2F20001C2F20004C0EB001001EB1C
:102D0000800005F13C01D1EC030A94ED040A90ED3A
:102D1000012AD0ED062A90ED0B3A12F069F921F064
:102D20009FFD1FEDB32A05F13C00B0EE403A94ED53
:102D3000040AD0EC030AF0EE422A12F0CDF905F1B4
:102D40003C0084ED040AC0EC030A04B0BDEC108B17
:102D500001B0BDE8F08F0020002402F0BFFF007832
:102D6000002878D041F66020C2F2000090ED0DAA54
:102D700090ED1C9A90ED2B8A687800286DD040F673
:102D8000206441F2A0165FEDCB2A4FF6FF77C2F226
:102D90000004C2F2000696ED011A94ED0F4A96ED7A
:102DA000000A94ED0E3A96ED022A94ED105A74EE54
:102DB000410A79EE411A33EE407A3AEE406A35EE36
:102DC000425A38EE424A31EEE01A36EE470A34EE05
:102DD000452A21EE013A00EE003A02EE023AB4EE44
:102DE000E23AF1EE10FA4ADD60EEA00A61EEA11AB5
:102DF00047EE070A46EE061A45EE050A44EE041AA7
:102E000031EEE04A5FEDEA1A24EE284A84EE033AF6
:102E100061EE030A20EE030A22EE031A1EF06AF89E
:102E20001FEDF02A96ED003A96ED014A96ED025A12
:102E300084ED0EAA84ED0F9A84ED108A00EE023A1A
:102E400000EE824A01EE025A86ED003A86ED014A12
:102E500086ED025A13E06C700BE040F62060C2F27F
:102E6000000080ED0EAA80ED0F9A80ED108A0120FF
:102E7000687041F2A0164FF6FF77C2F200060120FB
:102E800002F02CFF0078002872D041F66020C2F2D8
:102E9000000090ED3AAA90ED499A90ED588AA878F2
:102EA000012867D140F6206496ED041A96ED030AD6
:102EB00096ED052ADFEDEA2AC2F2000494ED124AEB
:102EC00094ED113A94ED135A79EE411A3AEE406AB4
:102ED00074EE410A33EE407A35EE425A38EE424AF9
:102EE00031EEE01A36EE470A34EE452A21EE013A79
:102EF00000EE003A02EE023AB4EEE23AF1EE10FAD7
:102F000044DD60EEA00A61EEA11A47EE070A46EE24
:102F1000061A45EE050A44EE041A31EEE04ADFEDEA
:102F2000D11A24EE284A84EE033A61EE030A20EE19
:102F3000030A22EE031A1DF0DDFF9FEDCB2A96ED6A
:102F4000033A96ED044A96ED055A84ED11AA84EDF4
:102F5000129A84ED138A00EE023A00EE824A01EEE4
:102F6000025A86ED033A86ED044A86ED055A0DE0D5
:102F700000200AE040F62060C2F2000080ED11AAB5
:102F800080ED129A80ED138A0120A870022002F0D1
:102F9000A5FE0078002872D041F66020C2F2000041
:102FA00090ED67AA90ED769A90ED858AE8780128F1
:102FB00067D140F6206496ED071A96ED060A96ED65
:102FC000082ADFEDA72AC2F2000494ED154A94ED19
:102FD000143A94ED165A79EE411A3AEE406A74EEBC
:102FE000410A33EE407A35EE425A38EE424A31EE2B
:102FF000E01A36EE470A34EE452A21EE013A00EE99
:10300000003A02EE023AB4EEE23AF1EE10FA44DD92
:1030100060EEA00A61EEA11A47EE070A46EE061A14
:1030200045EE050A44EE041A31EEE04ADFED8D1A52
:1030300024EE284A84EE033A61EE030A20EE030AE6
:1030400022EE031A1DF056FF9FED872A96ED063AF1
:1030500096ED074A96ED085A84ED14AA84ED159A68
:1030600084ED168A00EE023A00EE824A01EE025A20
:1030700086ED063A86ED074A86ED085A0DE00020F7
:103080000AE040F62060C2F2000080ED14AA80ED54
:10309000159A80ED168A0120E8700020002502F0C4
:1030A0001DFE04460078E0B19DF80C0041F6AC1519
:1030B000C2F20005002800F0EF8095ED061A95EDAC
:1030C000010A95ED0B2A21EE018A00EE008A02EE3C
:1030D000028AB5EEC08AF1EE10FA7DDA9FED630A3E
:1030E00087E040F62060C2F200000562C56241F64A
:1030F000AC15C2F20005CFE040F6A0539FED5C0A8C
:103100009FED5C2AC2F2000393ED051AB8EEC11AD6
:1031100021EE003AB4EEC23AF1EE10FA08DCB4EE59
:10312000C03AB0EE432AF1EE10FAB8BFB0EE402A32
:1031300090ED063AB7EE084AB6EE005A93ED040A4F
:1031400023EE046A9FED4C4AB7EE003A02EE056AA0
:1031500083EE023A36EE405AB4EEC45AF1EE10FA5B
:1031600008DC9FED464AB4EEC45AF1EE10FAA8BF4F
:10317000B0EE454A9FED425A40F62067C2F2000782
:1031800022EE052A02EE040A91ED112A91ED124A6F
:1031900083ED040A90ED135A90ED146A35EE422A3D
:1031A00036EE444A23EE022A23EE043A22EE012AA6
:1031B00023EE011A87ED062A87ED071AD0E9137668
:1031C000456D00205861C1E91176CD64D2E9002334
:1031D000C1E90023FEF732BEB0EE480A22F036F90C
:1031E000B4EEC00AF1EE10FA03D7B0EE480A22F0AE
:1031F0002DF940F620609FED232AC2F2000090EDE9
:10320000081A30EE020AB4EEC10AF1EE10FA10DD2F
:1032100080ED080A9FED1C2A90ED0B1A94ED043AFC
:1032200030EE410A23EE022A02EE001A80ED0B1A5C
:1032300032E09FED152A94ED043A30EE414A23EE38
:10324000022A90ED0B3A04EE021AB4EEC30A80EDA6
:10325000081AF1EE10FA19DA80ED0B0A1CE000BF33
:103260000BD7233C0AD7A33CCDCC4C3D000000003B
:103270006F12833A6666663FCDCC4C3ECDCC4CBED9
:10328000CDCCCC3D9A9919BF9A99193F30EE430A9B
:1032900000EE023A80ED0B3A012002F01FFD0446D9
:1032A0000078B8B19DF80D00002864D095ED151A8E
:1032B00095ED100A95ED1A2A21EE018A00EE008A9A
:1032C00002EE028AB5EEC08AF1EE10FA0ADA1FEDBC
:1032D000190A14E040F620600021C2F200004162A9
:1032E000016348E0B0EE480A22F0B0F8B4EEC00A3C
:1032F000F1EE10FA03D7B0EE480A22F0A7F840F634
:1033000020601FED202AC2F2000090ED091A30EE75
:10331000020AB4EEC10AF1EE10FA10DD80ED090ADE
:103320001FED272A90ED0C1A94ED043A30EE410A75
:1033300023EE022A02EE001A80ED0C1A1BE01FEDAC
:103340002E2A94ED043A30EE414A23EE022A90ED03
:103350000C3A04EE021AB4EEC30A80ED091AF1EE3B
:1033600010FA02DA80ED0C0A05E030EE430A00EEB6
:10337000023A80ED0C3A022002F0B0FC04460078DC
:10338000B8B19DF80E00002864D095ED241A95ED93
:103390001F0A95ED292A21EE018A00EE008A02EE2D
:1033A000028AB5EEC08AF1EE10FA0ADA1FED4B0A76
:1033B00018E040F620600021C2F200008162416303
:1033C00048E0B0EE480A22F041F8B4EEC00AF1EE4F
:1033D00010FA03D7B0EE480A22F038F81FED571A5A
:1033E00030EE010A40F62060C2F2000090ED0A1AA9
:1033F000B4EEC10AF1EE10FA10DD80ED0A0A9FED7D
:10340000E62A90ED0D1A94ED043A30EE410A23EECF
:10341000022A02EE001A80ED0D1A1BE09FEDDE2A53
:1034200094ED043A30EE414A23EE022A90ED0D3A33
:1034300004EE021AB4EEC30A80ED0A1AF1EE10FA95
:1034400002DA80ED0D0A05E030EE430A00EE023AA2
:1034500080ED0D3A002002F041FC007818B39DF891
:103460000C0000B340F620609FEDCC1AC2F20000C1
:1034700090ED0B0AB4EEC10AF1EE10FA13DD90EDF7
:10348000081A9FEDC72AB4EEC21AF1EE10FA0ADA52
:1034900031EE400A9FEDC31AB4EEC10AF1EE10FA04
:1034A00001DA002056E0012002F018FC007818B381
:1034B0009DF80D0000B340F620609FEDB81AC2F2EF
:1034C000000090ED0C0AB4EEC10AF1EE10FA13DD23
:1034D00090ED091A9FEDB22AB4EEC21AF1EE10FA7D
:1034E0000ADA31EE400A9FEDAF1AB4EEC10AF1EEEE
:1034F00010FA01DA01202DE0022002F0EFFB007843
:103500009FEDA90A60B39DF80E0048B340F6206213
:103510009FEDA22AFF204FF0FF380021C2F20002E7
:1035200092ED0D1AB4EEC21AF1EE10FA1CDD92ED16
:103530000A2A9FED9B3AB4EEC32AF1EE10FA13DA91
:1035400032EE411A9FED972AB4EEC21AF1EE10FA4C
:103550000ADA02209FED8D0A5FFA80F8012103E06C
:10356000FF204FF0FF38002140F2A00BC2F2000B09
:103570009BED011A31EE001AB3EE0E0AB4EEC01A3A
:103580008BED011AF1EE10FA06DCB5EEC01AF1EE81
:1035900010FA03DA9FED7F0A8BED010A002900F093
:1035A000EF8003A911F80810002900F0E98002F06B
:1035B00095FB45F29C3144F670424FF6FF739FED48
:1035C00074DAC2F20001C2F2000291F800E04FF694
:1035D000FF71BEF1000F18BF0121147844F6D462C8
:1035E000C2F20002167845F23812C2F2000292F8D6
:1035F00000904FF6FF72B9F1000F18BF0123002EA3
:1036000018BF0122002C18BF012790ED040A009872
:1036100020EE0DCA804577D045F2A43040F6A05C7C
:10362000002CC2F20000C2F2000C0088029045F2A9
:103630004010C2F200000088019044F6DC60C2F243
:103640000000B0F800A044F67840C2F20000008804
:10365000A0EB07052C4618BF963487420CF14807AB
:1036600098BF2C46A1CF002EDCF854C000EB84009C
:10367000AAEB02040097264618BF9636524598BF1B
:103680002646019FB9F1000F05EB8602A7EB030464
:10369000254618BF9635BB4298BF2546009B029F22
:1036A000BEF1000F03EB8503A7EB01052C4618BF05
:1036B0009634B94298BF2C4641F6AC1593ED009A6A
:1036C00092ED00AA90ED00BA0CEB8401C2F2000565
:1036D00091ED008A00F0E6F8B0EE603AB0EE615A83
:1036E000B0EE414AB0EE402AB0EE4B0AF0EE4A0A84
:1036F000B0EE491AF0EE481AF0EE432AB0EE443A22
:10370000F0EE453A11F0E6FA40F6A054C8EB081086
:10371000C2F2000405EB800004F13C01D1EC030A85
:103720009BED040A90ED012AD0ED062A90ED0B3AAC
:1037300011F05EFC21F094F82CEE0D3A2CEE000A0C
:10374000B4EEC30AF1EE10FA08DCB1EE433AB4EE7F
:10375000C30AF1EE10FAA8BFB0EE403A9FED0D2A71
:1037600004F13C00D0EC030A9BED040AF0EE422A7F
:1037700011F0B2FC04F13C008BED040AC0EC030A2A
:1037800004B0BDEC108B01B0BDE8F08F6F12833A2E
:10379000CDCC4C3E000000009A99193F9A9999BEF1
:1037A0009A99993E0AD7233C6F1203BA022806D988
:1037B0009FED091AF0EE410AB0EE410A704743F25C
:1037C0004C6100EB8000C2F2000101EBC000283028
:1037D00090EC030A704700BF00000000022806D9E1
:1037E0009FED091AF0EE410AB0EE410A704743F22C
:1037F0004C6100EB8000C2F2000101EBC0003430EC
:1038000090EC030A704700BF0000000043F24C60D8
:10381000C2F2000090EDCE0A7047000043F24C6007
:10382000C2F2000090EDCF0A7047000043F24C61F5
:1038300000EB8000C2F2000101EB001000F5CC703B
:103840007047000043F24C6100EB8000C2F20001BF
:1038500001EB001000F5C8707047000043F24C61A6
:1038600000EB8000C2F2000101EB001000F5DC70FB
:1038700070470000022806D99FED091AF0EE410AB0
:10388000B0EE410A704743F24C6100EB8000C2F297
:10389000000101EBC000A03090EC030A704700BFAC
:1038A0000000000043F24C60C2F2000000F53470EA
:1038B00090EC040A70470000022806D99FED091A0F
:1038C000F0EE410AB0EE410A704743F24C6100EB62
:1038D0008000C2F2000101EBC00000F58C7090EC9A
:1038E000030A704700000000022806D99FED091A5C
:1038F000F0EE410AB0EE410A704743F24C6100EB32
:103900008000C2F2000101EBC00000F5927090EC63
:10391000030A70470000000043F24C609FED060A66
:10392000C2F2000090F82E0301EE100AB8EE411A20
:1039300021EE000A704700BF0AD7233C43F24C60D7
:103940009FED060AC2F2000090F82D0301EE100A66
:10395000B8EE411A21EE000A704700BF0AD7233C97
:1039600043F24C60C2F2000090F82C037047000054
:1039700043F24C60C2F2000090EDCC0A70470000A8
:103980009FED0A0A022810D84A1ED2B2032A88BF25
:10399000704700EB800001EB400043F24C61C2F243
:1039A000000101EB800090EDD20A7047000000009A
:1039B0009FED0A0A022810D84A1ED2B2032A88BFF5
:1039C000704700EB800001EB400043F24C61C2F213
:1039D000000101EB800090EDD60A70470000000066
:1039E000022884BF9FED060A704743F24C6100EB4A
:1039F0008000C2F2000101EBC00090EDD20A7047D6
:103A00000000000043F24C60C2F2000090F8200376
:103A10007047000002288FBF002043F24C61C2F2C1
:103A2000000101EB800098BFD0F8F4077047000058
:103A3000022888BF704743F24C6100EB8000C2F25D
:103A4000000101EBC000283080EC030A7047000041
:103A5000022888BF704743F24C6100EB8000C2F23D
:103A6000000101EBC000343080EC030A7047000015
:103A700043F24C60C2F2000080EDCE0A70470000B5
:103A800043F24C60C2F2000080EDCF0A70470000A4
:103A9000B0B543F24C6200EB800001F10805D1E9BA
:103AA00000CEC2F2000202EB00103CCD00F5D07750
:103AB0003CC7C0E966CED1E90621C0E96C21B0BDA2
:103AC00043F24C6200EB8000C2F2000202EB0010F5
:103AD0000A684968C0E9642170470000B0B543F244
:103AE0004C6200EB800001F10805D1E900CEC2F282
:103AF000000202EB00103CCD00F5E0773CC7C0E9C6
:103B00006ECED1E90621C0E97421B0BD022888BF7C
:103B1000704743F24C6100EB8000C2F2000101EB00
:103B2000C000A03080EC030A70470000022888BF64
:103B3000704743F24C6100EB8000C2F2000101EBE0
:103B4000C000AC3080EC030A7047000043F24C60C8
:103B5000C2F2000000F5347080EC040A70470000E7
:103B6000022888BF704743F24C6100EB8000C2F22C
:103B7000000101EBC00000F58C7080EC030A704777
:103B8000022888BF704743F24C6100EB8000C2F20C
:103B9000000101EBC00000F5927080EC030A704751
:103BA0009FED071A43F24C61C2F2000120EE010AB8
:103BB000BDEEC00A10EE100A81F82E03704700BF58
:103BC0000000C8429FED071A43F24C61C2F20001A7
:103BD00020EE010ABDEEC00A10EE100A81F82D0396
:103BE000704700BF0000C84243F24C61C2F20001BE
:103BF00081F82C037047000043F24C60C2F20000D1
:103C000080EDCC0A70470000022810D84A1ED2B2BC
:103C1000032A88BF704700EB800001EB400043F2AD
:103C20004C61C2F2000101EB800080EDD20A7047C6
:103C3000022810D84A1ED2B2032A88BF704700EB70
:103C4000800001EB400043F24C61C2F2000101EB45
:103C5000800080EDD60A7047022888BF704743F283
:103C60004C6100EB8000C2F2000101EBC00080ED6E
:103C7000D20A704743F24C61C2F2000181F820037E
:103C800070470000022884BF0020704780B500EB19
:103C9000800028210C2201EBC00143F24C60C2F2EB
:103CA0000000084480EC030A1DF0C6FAB0FA80F068
:103CB000400980BD022884BF0020704780B500EB1A
:103CC000800034210C2201EBC00143F24C60C2F2AF
:103CD0000000084480EC030A1DF0AEFAB0FA80F050
:103CE000400980BD70B500EB80004FF4CC7243F208
:103CF0004C664B6901F1080C02EB0012D1E9000E91
:103D00009CE83010C2F20006B050B0184361C0E920
:103D1000035CC0E901E4D1E90631C0E9063111468E
:103D200020221DF089FAB0FA80F0400970BD000031
:103D300080B500EB80004FF4C87243F24C6302EB95
:103D4000001208684968C2F2000398509818416050
:103D5000114608221DF070FAB0FA80F0400980BDCB
:103D600070B500EB80004FF4DC7243F24C664B6997
:103D700001F1080C02EB0012D1E9000E9CE83010B2
:103D8000C2F20006B050B0184361C0E9035CC0E95C
:103D900001E4D1E90631C0E90631114620221DF0C7
:103DA0004BFAB0FA80F0400970BD0000022884BFD1
:103DB0000020704780B500EB8000A0210C2201EBB1
:103DC000C00143F24C60C2F20000084480EC030AD8
:103DD0001DF032FAB0FA80F0400980BD80B543F2A0
:103DE0004C601022C2F2000000F5347100F534700E
:103DF00081EC040A4FF434711DF01EFAB0FA80F021
:103E0000400980BD022884BF0020704780B500EBC8
:103E100080004FF48C710C2201EBC00143F24C6026
:103E2000C2F20000084480EC030A1DF005FAB0FA63
:103E300080F0400980BD0000022884BF0020704748
:103E400080B500EB80004FF492710C2201EBC001B1
:103E500043F24C60C2F20000084480EC030A1DF0FB
:103E6000EBF9B0FA80F0400980BD000080B5D0E9E0
:103E7000001243F24C638068C2F20003C3F8F417E7
:103E8000C3F8F827C3F8FC0703F2F47040F2F471AA
:103E90000C221DF0D1F9B0FA80F0400980BD00007D
:103EA0002DE9F043CBB0D1F80C9080460D465FFA77
:103EB00089F420460AF0CEFF064630B10AF0C4FF6E
:103EC00058B10EF015F8044608E020460EF016F83A
:103ED00006460AF0B9FF0028F3D10024404616F048
:103EE00081F807460068F0B10021B5F807000A2202
:103EF0000A238DF813104D21ADF811100A218DF809
:103F000016408DF81790069602ACADF81410ADF877
:103F10001C008F2041460090204619F06BFF386846
:103F200021461AF095FF4BB0BDE8F08380B584B010
:103F3000C8680190086902904869039001A8FFF7DA
:103F400095FF04B080BD000010B50C4616F030F9A6
:103F5000012811D12069B2EE041A00EE100AB4EE65
:103F6000C10AF1EE10FA1CDBB3EE031AB4EEC10A7B
:103F7000F1EE10FA0FDD14E00A38C0B2092810D8AB
:103F80002069B7EE000A01EE100AB4EE401AF1EE15
:103F900010FA18BF10BDBDEEC00A10EE100A12F0E4
:103FA00053FD10BD7047000070B5CAB0054616F04D
:103FB00019F804460068D0B1002001AE2946162247
:103FC00016238DF80F004FF49670ADF80D00C82041
:103FD000ADF81400C820C0F264000490D92000900D
:103FE000304619F007FF206831461AF031FF4AB019
:103FF00070BD00002DE9F04FADF51D7D26AD40F6FA
:1040000060360DF18E0C002705F10900C2F20006A2
:104010001F908BA8013005904AF2D430C0F2020004
:1040200000881E9007EB470406EB84008268002A94
:1040300000F05B8460460A219047C0B200281A90C5
:1040400000F0588445F6E4104FF492711A9E002354
:104050004FF0000E0DF18E0C1797C2F2000007FB17
:10406000010A00210AF21710209107900AF21D1090
:1040700009900AF58B700B900AF1020012900AF574
:104080008A70169045F67460C2F2000000EBC40B13
:104090000AF21510002419900AF10C000BF1030923
:1040A0000E900AF109001D900AF1080010900AF123
:1040B00007000D900AF1060014900AF10500119016
:1040C0000AF104001C900AF1030022900BF10A008F
:1040D0000A900BF1140008900BF1100013900BF1F3
:1040E00008000F900BF105000C900BF10D001590DE
:1040F0000BF10C001B900BF1040018900BF1020067
:1041000021900020CAE000278BF800709FE303276E
:1041100036E0012734E00698002800F00183079874
:10412000818802680B9800780291019204900698A9
:1041300001880646002959D00D98002290F800C049
:10414000002000BF00EBC005354495F803E0F445BE
:1041500008D1109F2B793F789F4203D1AB78049F01
:104160009F426BD0013001328842EBD392B28A4237
:1041700068D10F29B64600F2D3823AE003271A9E8F
:104180008BF80070012051464FF4927289F80000BC
:104190002846FCF7F6FB0F9A012F4FF0000E0DF1A9
:1041A0008E0C4FF000030ED114980C990127007863
:1041B00008701088002800F1010004BF0A99A1F8D6
:1041C00000E0108043E32298022F00788DF89B00D6
:1041D000219880F800E040F0418319981699007802
:1041E000097841EA0020ADF898003BE30021002067
:1041F000B64648F68053019F039E029AC0F25B03C5
:10420000DB1956F8087F92B242F100027568DB1B99
:10421000B446AA41C0F084820D9B00EBC002049D0D
:104220001A9E013172441B78D370109B1B789570D5
:1042300026AD1371AEF80010634617E0024692B245
:104240008A4296D000EBC001029B019FB6463144E2
:10425000B1F80920D1F805109BB2C91B72EB03011C
:1042600080F05E82039B1A9E26AD0833079900EB0F
:10427000C000019F70440A468988A0F8091011689F
:10428000C0F805100298D3E9001280B2C91B72EB86
:10429000000138BFC3E90070012771E78BF80030D7
:1042A0001CF8008099F800000F2800F2CF82022746
:1042B000DFE810F0100010002800450058006D00E5
:1042C00082009700AC00C700DF00FC001F017001F6
:1042D000760199010027B8F1FE0F00F08782B8F14E
:1042E000FD0F40F0B48202200027129989F80000E7
:1042F00022980770FD2008701B980146007800F096
:10430000FE0080E2229880F80080189880F800E093
:10431000BAF8000088EA000181EA0111C9B20A096D
:1043200082EAC102090241EA10205040AAF80000C6
:104330001B980078C00740F06C82032084E21C9830
:10434000B8F1020F80F80080C0F06C82219800273D
:10435000014600780130087001208BF8007089F860
:10436000000074E2119880F80080BAF8000088EA32
:10437000000181EA0111C9B20A0982EAC1020902F7
:1043800041EA10205040AAF8000005205CE2149891
:1043900080F80080BAF8000088EA000181EA011183
:1043A000C9B20A0982EAC102090241EA102050405A
:1043B000AAF80000062047E20D9880F80080BAF8BD
:1043C000000088EA000181EA0111C9B20A0982EA03
:1043D000C102090241EA10205040AAF8000007205B
:1043E00032E2109880F80080BAF8000088EA0001F4
:1043F00081EA0111C9B20A0982EAC102090241EA4D
:1044000010205040AAF8000008201DE21D9880F8F6
:1044100002E0A0F80080BAF8000088EA000181EA12
:104420000111C9B20A0982EAC102090241EA102057
:104430005040AAF800001B980078C0072FD109202F
:1044400002E21D980146008840EA08200880BAF878
:10445000000088EA000181EA0111C9B20A0982EA72
:10446000C102090241EA10205040AAF800000A20C7
:10447000EAE11D980146807840EA08008870BAF8A1
:10448000000088EA000181EA0111C9B20A0982EA42
:10449000C102090241EA10205040AAF80000229807
:1044A000007800280CBF0C200B20CDE118980027C5
:1044B00002460078411C11700E9AC9B202F80080C1
:1044C000BAF8000088EA000282EA0212D2B21309A6
:1044D00083EAC203120242EA102058400023AAF8DD
:1044E000000022980078814204BF0C2089F8000067
:1044F000ADE11D980025A82201468078098841EA8F
:1045000000406B1C99184AF6D8464908C0F20206CA
:1045100001EB410756F82770874233D94A1E95426E
:1045200080F0258129444AF6D8464908C0F202069F
:1045300001EB410756F82770874223D94A1E95425E
:1045400080F0158129444AF6D8464908C0F202068F
:1045500001EB410756F82770874213D94A1E95424E
:1045600080F0058129444AF6D8464908C0F202067F
:1045700001EB410756F82770874203D94A1E95423E
:10458000C0D3F4E01A9E0D46874280F0F180954238
:10459000B7D3EDE09AF801000227804508BF012754
:1045A00019988BF8007080F800801C980078C0077C
:1045B00040F0CB801398006800283FF4E3AD026B15
:1045C00062B11D9801468078098841EA0041584649
:1045D00090479BF8007000287FF4D4AD022F7FF441
:1045E00096AD0227CEE5159802460078C0F10D0180
:1045F0000138514410F0FF0F107081F8168140F01F
:1046000025811398016800293FF483AD089871AEA5
:104610002022006806904EF26760CDE971EE0391AA
:104620001031C6F6092073904AF68560CBF66730E4
:1046300074904FF27230C3F66E4075904FF23A505C
:10464000CAF24F50769045F27F20C5F20E10779057
:1046500046F68C00C9F6053078904DF6AB10C1F6E1
:10466000837079904CF61950C5F6E0307A90304658
:104670001AF050FF22981299007800F10A02304691
:104680001AF048FF1699304602221AF043FF0B99A0
:10469000304607221AF03EFF8020719D47218DF899
:1046A0002C020598FCF7E4F937208BA92A0AA0EB25
:1046B000D50000F03F000F18FA712A0C3D72BA7154
:1046C0002A0E7A71729A130A3A71FB70130C120E49
:1046D000BB707A7000F1090230461AF01BFF9DF89A
:1046E000CF319DF8CC019DF8CD119DF8CE218DF8EC
:1046F000BE318DF8BF218DF8C0118DF8C1019DF834
:10470000D301099906228DF8C2019DF8D2018DF8D6
:10471000C3010DF5DF70FCF708F900283FF4FBAC8E
:10472000139826AD0068026B002A3FF427AD1D9850
:1047300001468078098841EA0041584690470028A0
:104740004FF0030718BF012719E50F201599022F15
:1047500089F800004FF00D0008707FF4D4AC229867
:1047600000788DF89B00219880F800E035E51A9ECE
:104770004AF6D84105EB450700230022C0F20201AA
:104780000D4651F82710814204BF05EB87021379CB
:10479000BAF800707B4083EA0313DBB21D0985EA97
:1047A000C3051B0243EA17236B40AAF80030DBB2B3
:1047B00098454FF00E0308BF0D23814289F8003061
:1047C000169B83F800800DD1189851790278914298
:1047D00008D90E98891A1044FCF74AF90DF18E0C8D
:1047E0004FF0000E002726AD002330E00220129982
:1047F00089F8000022980770FE2008701B98014677
:10480000007840F0010008704FF6FF70AAF8000031
:104810001DE01C980027077011980770052089F883
:10482000000014E0BAF8000088EA000181EA0111F2
:10483000C9B20A0982EAC102090241EA10205040C5
:10484000AAF80000042000BF89F800000027229881
:1048500000788DF89B00219880F800E007F0FE00BA
:10486000022819D121990120B8F1FD0F08708BF8A9
:1048700000E089F800002BD1022089F8000022987E
:1048800080F800E04FF6FF70AAF800000134E0B2B3
:10489000B042FFF403AD20E0D7B11F980146807805
:1048A000098841EA00401E9988420FD249F64C71AE
:1048B000C0F2020151F8202042B117982946C0B237
:1048C000904700230DF18E0C4FF0000E0120209038
:1048D0000134E0B2B042FFF4E1AC209840F660361B
:1048E000179FC2F20006C0070AD10137042FFFF458
:1048F00099AB05E00DF18E0C0137042FFFF492AB5C
:104900000DF51D7DBDE8F08F10B540F66034C2F2A4
:104910000004E06820B1804700281CBF012010BDC2
:10492000A06920B1804700281CBF012010BD606A2B
:1049300008B1804718B9206B18B1804708B1012031
:1049400010BD002010BD00002DE9F04FCBB040F6A7
:104950006036C2F2000630880130308080B26328B1
:1049600073D9002002A9308001F109057168C1B135
:104970004FF6FF7102AC0922092305910221C0F212
:104980000031069103218DF81C10A8702880322078
:1049900000210090204618F0E9FD706821461AF0C9
:1049A000C5F93069C8B14FF6FF7002AC0121092288
:1049B000092305900220C0F20030069003208DF8F4
:1049C0001C000020A870288032200090204618F09B
:1049D000CDFD306921461AF0A9F9F069C8B14FF64A
:1049E000FF7002AC02210922092305900220C0F2C7
:1049F0000030069003208DF81C000020A87028804D
:104A000032200090204618F0B1FDF06921461AF0DE
:104A10008DF9B06AC8B14FF6FF7002AC03210922CC
:104A2000092305900220C0F20030069003208DF883
:104A30001C000020A870288032200090204618F02A
:104A400095FDB06A21461AF071F943F2D2094AF293
:104A5000D83B04364FF0000A02AC00270025C2F212
:104A60000009C0F2020B00BF3068002800F004818A
:104A700039F80700A0B109EB0701CB788A78013338
:104A8000CB70DBB293420BD35BF8202081F803A0FC
:104A9000E8B22146904718B1306821461AF046F92D
:104AA00009EB0708B8F80400B0B198F8072098F8A7
:104AB0000610013288F80720D2B28A420CD35BF884
:104AC0002020E8B2214688F807A0904720B130683E
:104AD00021461AF02BF900BFB8F80800B0B198F8D9
:104AE0000B2098F80A10013288F80B20D2B28A42C3
:104AF0000CD35BF82020E8B2214688F80BA0904741
:104B000020B1306821461AF011F900BFB8F80C0046
:104B1000B0B198F80F2098F80E10013288F80F20E5
:104B2000D2B28A420CD35BF82020E8B2214688F842
:104B30000FA0904720B1306821461AF0F7F800BF67
:104B4000B8F81000B0B198F8132098F8121001329C
:104B500088F81320D2B28A420CD35BF82020E8B246
:104B6000214688F813A0904720B1306821461AF0FA
:104B7000DDF800BFB8F81400B0B198F8172098F825
:104B80001610013288F81720D2B28A420CD35BF893
:104B90002020E8B2214688F817A0904720B130685D
:104BA00021461AF0C3F800BFB8F81800B0B198F861
:104BB0001B2098F81A10013288F81B20D2B28A42C2
:104BC0000CD35BF82020E8B2214688F81BA0904760
:104BD00020B1306821461AF0A9F800BFB8F81C00CF
:104BE000B0B198F81F2098F81E10013288F81F20E5
:104BF000D2B28A420CD35BF82020E8B2214688F872
:104C00001FA0904720B1306821461AF08FF800BFEE
:104C1000B8F82000B0B198F8232098F8221001329B
:104C200088F82320D2B28A420CD35BF82020E8B265
:104C3000214688F823A0904720B1306821461AF019
:104C400075F800BFB8F82400B0B198F8272098F89C
:104C50002610013288F82720D2B28A420CD35BF8A2
:104C60002020E8B2214688F827A0904720B130687C
:104C700021461AF05BF800BF28370C360135A02F0B
:104C80007FF4F2AE40F2D209C2F20009B9F9000095
:104C9000B0F1FF3F40F3FD804AF61C4140F6603A18
:104CA00004F1090604F11407C0F20201C2F2000A7D
:104CB000B1F80080DAF80410A9B34AF66404C0EB36
:104CC000C000C0F2020404EB8005A8698047B9F96E
:104CD00000008DED050AADF81880D5F80110D5F863
:104CE0000520D5F80930D5F80D50ADF81A00C0EB05
:104CF000C000BB607A603960FD6000211922192371
:104D000014F8200002AC8DF82C000020B0701620A2
:104D10003080DC200090204618F028FCDAF80400EF
:104D200021461AF003F8DAF81000B8B3B9F9000018
:104D30004AF66404C0F20204C0EBC00004EB800534
:104D4000A8698047B9F900008DED050AADF8188013
:104D5000D5F80110D5F80520D5F80930D5F80D5053
:104D6000ADF81A00C0EBC000BB607A603960FD602E
:104D700001211922192314F8200002AC8DF82C000F
:104D80000020B07016203080DC200090204618F003
:104D9000EDFBDAF81000214619F0C8FFDAF81C0024
:104DA000B8B3B9F900004AF66404C0F20204C0EBDB
:104DB000C00004EB8005A8698047B9F900008DEDBB
:104DC000050AADF81880D5F80110D5F80520D5F8FA
:104DD0000930D5F80D50ADF81A00C0EBC000BB602B
:104DE0007A603960FD6002211922192314F820002D
:104DF00002AC8DF82C000020B07016203080DC2032
:104E00000090204618F0B2FBDAF81C00214619F099
:104E10008DFFDAF82800B8B3B9F900004AF6640447
:104E2000C0F20204C0EBC00004EB8005A869804713
:104E3000B9F900008DED050AADF81880D5F801101C
:104E4000D5F80520D5F80930D5F80D50ADF81A0081
:104E5000C0EBC000BB607A603960FD60032119229D
:104E6000192314F8200002AC8DF82C000020B0703B
:104E700016203080DC200090204618F077FBDAF80E
:104E80002800214619F052FFB9F800000138A9F8AE
:104E900000004BB0BDE8F08F10B52DED0A8B90ED02
:104EA0000A1A04460021002030EE410AB5EEC00A7D
:104EB000F1EE10FAC8BF012194F83C20914208D1CC
:104EC0009FED521A94ED102A32EE011A84ED101A59
:104ED0000AE0B5EEC00A9FED4C1A2064F1EE10FA1C
:104EE000C8BF012084F83C0021EE016AF7EE000AF9
:104EF00094ED024A94ED002A9FED457A94ED035A11
:104F000094ED013A9FED43CA21EE061AF0EE601AC5
:104F1000B2EE0E6A44EE011A87EE024A45EE010A2D
:104F2000F4EEC61AF1EE10FAC8BFF0EE461AF4EE2F
:104F3000C41AF1EE10FAF4EEC60AC8BFF0EE441A35
:104F4000F1EE10FAC8BFF0EE460A22EE211A23EE67
:104F5000202A20EE01BA20EE029A8BEE0C8AB0EEE7
:104F6000490A1FF054FBB0EE40AAB0EE480A1FF009
:104F70004EFBB4EEC0AAF1EE10FA02DD9FED22BAAC
:104F800009E0B9EE001A9FED210AB0EE498A29EE38
:104F9000011A01EE00BA94ED0B2A94ED0C3A94ED4F
:104FA0000D4A94ED081AB0EE4B6A94ED070A9FED96
:104FB000175A9FED197ADFED190A4DF20A7008EEC3
:104FC0000C6AC3F6A3303BEE022A3BEE044A3BEEEA
:104FD000033A36EE000A38EE011AA06308EE052AFD
:104FE00008EE074A08EE203A84ED070A84ED081A15
:104FF00084ED0A2A84ED0B3A84ED0C4A84ED0D0A07
:10500000BDEC0A8B10BD00BF000000000AD7A33B17
:105010006666663F0AD7A33C8FC2753C0AD7233C1D
:1050200080B54FF48061FBF723FD80BD70B5551846
:105030000446082D27D832B30E4600BF04EBC1103A
:105040008021FBF715FD701CC0B285421BD904EB13
:10505000C0108021FBF70CFDB01CC0B2854212D9F4
:1050600004EBC0108021FBF703FDF01CC0B28542A9
:1050700098BF70BD04EBC0108021FBF7F9FC04362B
:10508000F1B28D42DAD870BD2DE9F04F81B0062A19
:1050900000F28E804FF0000E5FFA8EFC11F80C408B
:1050A000002C00F081800EF101045FFA84FC11F8FD
:1050B0000C50002D77D00EF102045FFA84FC11F839
:1050C0000C50002D6FD00EF103045FFA84FC11F830
:1050D0000C50002D67D00EF104045FFA84FC11F827
:1050E0000C50002D5FD00EF105045FFA84FC11F81E
:1050F0000C50002D57D00EF106045FFA84FC11F815
:105100000C50002D4FD00EF107045FFA84FC11F80B
:105110000C50002D47D00EF108045FFA84FC11F802
:105120000C50002D3FD00EF109045FFA84FC11F8F9
:105130000C50C5B30EF10A045FFA84FC11F80C5050
:105140008DB30EF10B045FFA84FC11F80C5055B3CB
:105150000EF10C045FFA84FC11F80C501DB30EF133
:105160000D045FFA84FC11F80C50E5B10EF10E0449
:105170005FFA84FC11F80C50ADB10EF10F045FFA28
:1051800084FC11F80C5075B10EF110045FFA84FC28
:1051900011F80C503DB10EF1110E5FFA8EF7FF2F92
:1051A0007FF47AAF04E0A64603EBCC04802C03D94D
:1051B000002001B0BDE8F08F5FEA0E6700F0E480E8
:1051C000ACF10104551C0CF0030E032C009505D224
:1051D0004FF0000CBEF1000F77D1D5E000EBC51702
:1051E00048F62D3AACEB0E094FF0000C1F44C0F20C
:1051F000020A07F1180600BF11F80C40203CE4B287
:105200005A2C88BF00240AEB04152401AF68D5F896
:1052100004B0ED685AF8044046F8145C46F8187C6F
:1052200046F8984C01EB0C0446F894BC0CF1040CC5
:105230006578203DEDB25A2D88BF00250AEB051791
:105240002D01D7F80880D7F804B0FF685AF8055048
:1052500046F80C7C46F8108C46F88CBC46F8905CFE
:10526000A578203DEDB25A2D88BF00250AEB051721
:105270002D01D7F808B0D7F80480FF685AF8055018
:1052800046F8047C46F808BC46F8848C46F8885CEE
:10529000E478203CE4B25A2C88BF0024E1450AEBB4
:1052A00004154FEA0414AF68D5F80480ED685AF885
:1052B00004407560376046F87C8C46F8804C06F1F7
:1052C000200699D1BEF1000F5ED011F80C4048F6CF
:1052D0002D3803EBCC0700EBC219C0F20208203CCA
:1052E000E4B25A2C88BF0024BEF1010F4FEA041625
:1052F00008EB041458F806606568A268E46849F889
:10530000076009EB07067560009D00EBC510C251F0
:1053100000EB0702546037D00CF101028C5C03EB08
:10532000C202203CE4B25A2C88BF0024BEF1020F16
:105330004FEA041508EB041458F805506668A7688E
:10534000E46849F8025009EB02056E608750024498
:10535000546019D00CF10202895C03EBC20209EB24
:1053600002032039C9B25A2988BF00210F0108EB76
:10537000011158F807708E6849F802704F68C968C3
:105380005F60865010444160012001B0BDE8F08F9D
:105390002DE9F043072A00F290804FF0000E5FFAEB
:1053A0008EFC11F80C40002C00F081800EF10104FD
:1053B0005FFA84FC11F80C50002D77D00EF1020436
:1053C0005FFA84FC11F80C50002D6FD00EF103042D
:1053D0005FFA84FC11F80C50002D67D00EF1040424
:1053E0005FFA84FC11F80C50002D5FD00EF105041B
:1053F0005FFA84FC11F80C50002D57D00EF1060412
:105400005FFA84FC11F80C50002D4FD00EF1070408
:105410005FFA84FC11F80C50002D47D00EF10804FF
:105420005FFA84FC11F80C50002D3FD00EF10904F6
:105430005FFA84FC11F80C50C5B30EF10A045FFA50
:1054400084FC11F80C508DB30EF10B045FFA84FC50
:1054500011F80C5055B30EF10C045FFA84FC11F8EE
:105460000C501DB30EF10D045FFA84FC11F80C50C2
:10547000E5B10EF10E045FFA84FC11F80C50ADB1E9
:105480000EF10F045FFA84FC11F80C5075B10EF1A7
:1054900010045FFA84FC11F80C503DB10EF1110EAE
:1054A0005FFA8EF7FF2F7FF47AAF06E0A6460CEB8B
:1054B0004C0403EB4404802C02D90020BDE8F083A7
:1054C0005FEA0E6600F09F80ACF101040CF0030E61
:1054D000032C05D24FF0000CBEF1000F5CD192E01E
:1054E00000EBC21649F21D19ACEB0E084FF0000C90
:1054F0001E44C0F2020906F1120500BF11F80C703B
:10550000203FFFB25A2F88BF002707EB470759F803
:10551000174045F8124C09EB4704A48825F80E4CB7
:1055200001EB0C040CF1040C6778203FFFB25A2FFA
:1055300088BF002707EB470759F8176045F80C6C40
:1055400009EB4706B68825F8086CA678203EF6B227
:105550005A2E88BF002606EB460659F8167009EB4E
:105560004606B68845F8067C25F8026CE478203CAF
:10557000E4B25A2C88BF0024E04504EB440459F8F7
:10558000146009EB4404A4882E60AC8005F1180572
:10559000B4D1BEF1000F36D011F80C4000EBC210B0
:1055A0000CEB4C0203EB4202203CE4B25A2C88BFC5
:1055B0000024BEF1010F04EB440549F21D14C0F2B2
:1055C000020454F8156004EB4505AD88865002448A
:1055D000958018D00CF101028D5C02EB420203EBC6
:1055E0004202203DEDB25A2D88BF0025BEF1020FC8
:1055F00005EB450554F8156004EB4505AD8886506C
:105600000244958002D10120BDE8F0830CF1020232
:10561000895C02EB420203EB42022039C9B25A29EB
:1056200088BF002101EB410154F8117004EB4101E6
:1056300089888750104481800120BDE8F0830000F4
:1056400019B902F14003802B01D900207047B0B591
:1056500049F2403500EBC1108418C0F20205402227
:1056600020462946FBF78DF904F1800005F1400141
:105670004022FBF786F904F5807005F18001402295
:10568000FBF77FF904F5C07005F1C0014022FBF77C
:1056900078F904F5007005F580714022FBF771F987
:1056A00004F5207005F5A0714022FBF76AF904F5B6
:1056B000407005F5C0714022FBF763F904F5607096
:1056C00005F5E0714022FBF75CF90120B0BD000058
:1056D0000729844684BF00207047931D0020802B3B
:1056E00088BF704700230CEBC111C1F618038B5023
:1056F0001144888001207047072A04D803F1060C62
:10570000BCF1800F01D90020704700EBC2100029C6
:10571000184409D04CF27001818040F20461C1F656
:10572000034101600120704744F22421818042F24C
:105730004241C1F6180101600120704700000000DD
:1057400070B52DED048B044610EE900AB0EE608A21
:10575000B0EE409A21F01CFE9FED2D0B05460E4643
:1057600053EC102B21F06DFE002845D19FED2A0B44
:105770002846314653EC102B21F068F9054619EE06
:10578000100A0E4621F004FE02460B46284631461A
:1057900021F050FEA8BB9FED220A89EE081A80EE88
:1057A000010A1FF071FE9FED1F1AB7EE002ABFEE2F
:1057B000004A012020EE011A20EE000A31EE023AE2
:1057C00032EE411A30EE044A30EE033A30EE011A5E
:1057D00082EE032A34EE043A20EE020A23EE023A65
:1057E00021EE021A84ED010A84ED023A84ED031AD7
:1057F0002070BDEC048B70BD00202070BDEC048BCC
:1058000070BD00202070BDEC048B70BD00BF00BFD8
:105810002D431CEBE2361A3FCDCCCCCCCCCC004097
:10582000DB0F4940F304B53F70B52DED068B044600
:1058300010EE900AB0EE608AB0EE409A21F0A8FD1A
:105840009FED3F0B05460E4653EC102B21F0F9FD62
:10585000002870D19FED3C0B2846314653EC102BAD
:1058600021F0F4F8054619EE100A0E4621F090FDDD
:1058700002460B462846314621F0EAFD00285AD060
:105880009FED330A89EE081A80EE018AB0EE480ACD
:105890001FF0FAFD9FED2F1AB7EE009ABFEE00AA97
:1058A0000120207020EE011A20EE000A31EE092AB4
:1058B00030EE0A3A39EE411A30EE022A33EE033A5C
:1058C00030EE011A89EE022A20EE020A23EE023A95
:1058D00021EE021A84ED010AB0EE480A84ED023A84
:1058E00084ED031A1FF0D0FD9FED1B1A20EE011A64
:1058F00020EE000A31EE092A30EE0A3A39EE411A5A
:1059000030EE022A33EE033A30EE011A89EE022A13
:1059100020EE020A23EE023A21EE021A84ED040A76
:1059200084ED053A84ED061A2078002818BF01207E
:10593000BDEC068B70BD00202070BDEC068B70BDE9
:105940002D431CEBE2361A3FCDCCCCCCCCCC004066
:10595000DB0F49405E83EC3F15EF433F90F870103A
:10596000002900F0898090ED0C1A90ED0D3A90ED31
:10597000004A90ED015AD0ED0E0A90ED026AD0ED8A
:105980000F1A90ED037A31EE012A32EE002A33EE3F
:10599000022A90ED103A24EE022A90ED114A00EE10
:1059A000C52A01EEC62A90ED126A33EE035AD0EDF5
:1059B000051A32EE055A34EE054A90ED045A27EEE8
:1059C000044A90ED137A80ED0C0A80ED0D1A80EDFB
:1059D0000E2AC0ED0F0A80ED102A80ED113A06EE76
:1059E000454A07EE614A80ED124A80ED136A90ED58
:1059F000160A90ED171A80ED170A90ED146A90EDD3
:105A0000157A90ED062A90ED073A90ED085A76EE59
:105A1000060A74EE200A37EE207A22EE072A00EEFC
:105A2000432A01EE452A80ED162A80ED156A80EDA5
:105A3000144A90ED1A1A90ED1B3A80ED1B1A90ED66
:105A4000186A90ED197A90ED090A90ED0A4A90EDE6
:105A50000B5A76EE060A72EE200A37EE207A20EE16
:105A6000070A01EE440A03EE450A80ED1A0A80EDAA
:105A7000196A80ED182A704780ED0C0A80ED0D0A36
:105A800080ED0E0A80ED0F0A80ED100A80ED110AFC
:105A900080ED120A80ED130A80ED140A80ED150ADC
:105AA00080ED160A80ED170A80ED180A80ED190ABC
:105AB00080ED1A0A80ED1B0A70470000000000000C
:105AC00070B52DED068B044610EE900AB0EE608A9C
:105AD000B0EE409A21F05CFC9FED690B05460E4646
